202309010010000700000000000000639083                8000000000030708551755SIALAR SEGURIDAD SA           000000001623600000000000000000000000000000081000000000000000000000000000000000000000000000000000000000000000000000000000PES00010000002 00000000027495100000000003927900000000000                              000000000000000
202309160010426400000000000002636293                8000000000030639453738TELECOM ARGENTINA SOCIEDAD ANO000000004464429000000000000000000000000000000000000000000000000000000000000000000000000000000000000000000000000000000000PES00010000002 00000000072679300000000030581000000000000                              000000000000000
202311010010000700000000000000645384                8000000000030708551755SIALAR SEGURIDAD SA           000000001623600000000000000000000000000000081000000000000000000000000000000000000000000000000000000000000000000000000000PES00010000002 00000000027495100000000003927900000000000                              000000000000000
202311300010020500000000000000058213                8000000000030537882871EL JUMILLANO S A              000000000276592000000000000000000000000000000000000000000000000000000000000000000000000000000000000000000000000000000000PES00010000001 00000000004684200000000000669200000000000                              000000000000000
202312010030010600000000000000013503                8000000000030537882871EL JUMILLANO S A              000000000276592000000000000000000000000000000000000000000000000000000000000000000000000000000000000000000000000000000000PES00010000001 00000000004684200000000000669200000000000                              000000000000000
202312010010000700000000000000658032                8000000000030708551755SIALAR SEGURIDAD SA           000000002191800000000000000000000000000000054000000000000000000000000000000000000000000000000000000000000000000000000000PES00010000002 00000000037118300000000005302600000000000                              000000000000000
202312150010426400000000000003111361                8000000000030639453738TELECOM ARGENTINA SOCIEDAD ANO000000003901390000000000000000000000000000000000000000000000000000000000000000000000000000000000000000000000000000000000PES00010000002 00000000064518200000000018427700000000000                              000000000000000
202401150010426400000000000003250744                8000000000030639453738TELECOM ARGENTINA SOCIEDAD ANO000000004733279000000000000000000000000000000000000000000000000000000000000000000000000000000000000000000000000000000000PES00010000001 00000000080160400000000011451500000000000                              000000000000000
202401290010000100000000000000175163                8000000000030711442754TUTELAR SEGUROS SOCIEDAD ANONI000000016224466000000000289722000000000000000000000000000000000000000000000000000000000000000000000000000000000000000000PES00010000002 00000000276553200000000000000000000000000                              000000000000000
202402010010001100000000000000000148                8000000000030716540134WE ARE CATCH S.A.             000000287980000000000000000000000000000000000000000000000000000000000000000000000000000000000000000000000000000000000000PES00010000001 00000004998000000000000000000000000000000                              000000000000000
202402010030001100000000000000000015                8000000000030716540134WE ARE CATCH S.A.             000000287980000000000000000000000000000000000000000000000000000000000000000000000000000000000000000000000000000000000000PES00010000001 00000004998000000000000000000000000000000                              000000000000000
202402010010000600000000000000000163                8000000000020250505907MOSTAJO JUAN CARLOS           000000069938000000000000000000000000000000000000000000000000000000000000000000000000000000000000000000000000000000000000PES00010000001 00000001213800000000000000000000000000000                              000000000000000
202402010030000600000000000000000015                8000000000020250505907MOSTAJO JUAN CARLOS           000000069938000000000000000000000000000000000000000000000000000000000000000000000000000000000000000000000000000000000000PES00010000001 00000001213800000000000000000000000000000                              000000000000000
202402010010000700000000000000667062                8000000000030708551755SIALAR SEGURIDAD SA           000000003294700000000000000000000000000000001000000000000000000000000000000000000000000000000000000000000000000000000000PES00010000002 00000000057180700000000000000000000000000                              000000000000000
202402110010246600000000000000613661                8000000000030678814357TELEFONICA MOVILES ARGENTINA S000000000897876000000000000000000000000000000000000000000000000000000000000000000000000000000000000000000000000000000000PES00010000001 00000000017922600000000005485000000000000                              000000000000000
202402160020000500000000000000033025                8000000000030702652975NSS SA                        000000000023702000000000000000000000000000000000000000000000000000000000000000000000000000000000000000000000000000000000PES00010000001 00000000000411300000000000000000000000000                              000000000000000
202402230010010500000000000001443420                8000000000030537882871EL JUMILLANO S A              000000002184000000000000000000000000000000000000000000000000000000000000000000000000000000000000000000000000000000000000PES00010000001 00000000037904100000000000000000000000000                              000000000000000
202404110010246600000000000000635851                8000000000030678814357TELEFONICA MOVILES ARGENTINA S000000001436900000000000000000000000000000000000000000000000000000000000000000000000000000000000000000000000000000000000PES00010000001 00000000028682100000000008777900000000000                              000000000000000
202411290030000100000000000000000062                8000000000030717181316CEDM S.R.L.                   000004537500000000000000000000000000000000000000000000000000000000000000000000000000000000000000000000000000000000000000PES00010000001 00000078750000000000000000000000000000000                              000000000000000
202601200010000400000000000000002312                8000000000027037337159FULCO AMELIA ENCARNACION      000000023655500000000000000000000000000000000000000000000000000000000000000000000000000000000000000000000000000000000000PES00010000001 00000000410550000000000000000000000000000                              000000000000000
202602020010000400000000000000002326                8000000000027037337159FULCO AMELIA ENCARNACION      000000001936000000000000000000000000000000000000000000000000000000000000000000000000000000000000000000000000000000000000PES00010000001 00000000033600000000000000000000000000000                              000000000000000
202602030010000300000000000000000048                8000000000020319184458ANGAROLLA MARIANO             000000072600000000000000000000000000000000000000000000000000000000000000000000000000000000000000000000000000000000000000PES00010000001 00000001260000000000000000000000000000000                              000000000000000
202602050010000300000000000000000127                8000000000020271468823BALLARINI FABRICIO MATIAS     000000076000100000000000000000000000000000000000000000000000000000000000000000000000000000000000000000000000000000000000PES00010000001 00000001319010000000000000000000000000000                              000000000000000
202602100010000300000000000000002050                8000000000020278321321SANZA JUAN MANUEL             000000011265100000000000000000000000000000000000000000000000000000000000000000000000000000000000000000000000000000000000PES00010000001 00000000195510000000000000000000000000000                              000000000000000
202602200010000300000000000000002060                8000000000020278321321SANZA JUAN MANUEL             000000013189000000000000000000000000000000000000000000000000000000000000000000000000000000000000000000000000000000000000PES00010000001 00000000228900000000000000000000000000000                              000000000000000
